{"src/OrbIdSwapRelay.sol":{"OrbIdSwapRelay":{"abi":[{"inputs":[{"internalType":"address","name":"_permit2","type":"address"},{"internalType":"address","name":"_swapRouterV2","type":"address"},{"internalType":"address","name":"_swapRouterV3","type":"address"},{"internalType":"address","name":"_universalRouterV4","type":"address"},{"internalType":"address","name":"_feeRecipient","type":"address"}],"stateMutability":"nonpayable","type":"constructor"},{"inputs":[],"name":"InsufficientOutput","type":"error"},{"inputs":[],"name":"InvalidAddress","type":"error"},{"inputs":[{"internalType":"address","name":"token","type":"address"}],"name":"SafeERC20FailedOperation","type":"error"},{"inputs":[],"name":"SwapFailed","type":"error"},{"anonymous":false,"inputs":[{"indexed":true,"internalType":"address","name":"user","type":"address"},{"indexed":true,"internalType":"address","name":"tokenIn","type":"address"},{"indexed":true,"internalType":"address","name":"tokenOut","type":"address"},{"indexed":false,"internalType":"uint256","name":"amountIn","type":"uint256"},{"indexed":false,"internalType":"uint256","name":"amountOut","type":"uint256"},{"indexed":false,"internalType":"uint256","name":"feeAmount","type":"uint256"},{"indexed":false,"internalType":"enum OrbIdSwapRelay.SwapVersion","name":"version","type":"uint8"}],"name":"SwapExecuted","type":"event"},{"inputs":[],"name":"BPS_DENOMINATOR","outputs":[{"internalType":"uint256","name":"","type":"uint256"}],"stateMutability":"view","type":"function"},{"inputs":[],"name":"FEE_BPS","outputs":[{"internalType":"uint256","name":"","type":"uint256"}],"stateMutability":"view","type":"function"},{"inputs":[],"name":"feeRecipient","outputs":[{"internalType":"address","name":"","type":"address"}],"stateMutability":"view","type":"function"},{"inputs":[],"name":"permit2","outputs":[{"internalType":"address","name":"","type":"address"}],"stateMutability":"view","type":"function"},{"inputs":[{"components":[{"internalType":"address","name":"tokenIn","type":"address"},{"internalType":"address","name":"tokenOut","type":"address"},{"internalType":"uint256","name":"amountIn","type":"uint256"},{"internalType":"uint256","name":"amountOutMin","type":"uint256"},{"internalType":"uint24","name":"poolFee","type":"uint24"},{"internalType":"uint256","name":"deadline","type":"uint256"},{"internalType":"enum OrbIdSwapRelay.SwapVersion","name":"version","type":"uint8"}],"internalType":"struct OrbIdSwapRelay.SwapParams","name":"params","type":"tuple"}],"name":"swap","outputs":[{"internalType":"uint256","name":"amountOut","type":"uint256"}],"stateMutability":"nonpayable","type":"function"},{"inputs":[],"name":"swapRouterV2","outputs":[{"internalType":"address","name":"","type":"address"}],"stateMutability":"view","type":"function"},{"inputs":[],"name":"swapRouterV3","outputs":[{"internalType":"address","name":"","type":"address"}],"stateMutability":"view","type":"function"},{"inputs":[{"components":[{"internalType":"address","name":"tokenIn","type":"address"},{"internalType":"address","name":"tokenOut","type":"address"},{"internalType":"uint256","name":"amountIn","type":"uint256"},{"internalType":"uint256","name":"amountOutMin","type":"uint256"},{"internalType":"uint24","name":"poolFee","type":"uint24"},{"internalType":"uint256","name":"deadline","type":"uint256"},{"internalType":"enum OrbIdSwapRelay.SwapVersion","name":"version","type":"uint8"}],"internalType":"struct OrbIdSwapRelay.SwapParams","name":"params","type":"tuple"},{"internalType":"bytes","name":"permitData","type":"bytes"},{"internalType":"bytes","name":"signature","type":"bytes"}],"name":"swapWithPermit","outputs":[{"internalType":"uint256","name":"amountOut","type":"uint256"}],"stateMutability":"nonpayable","type":"function"},{"inputs":[],"name":"universalRouterV4","outputs":[{"internalType":"address","name":"","type":"address"}],"stateMutability":"view","type":"function"}],"evm":{"bytecode":{"linkReferences":{},"object":"6101206040523480156200001257600080fd5b5060405162001382380380620013828339810160408190526200003591620000b9565b6001600160a01b03851615806200005357506001600160a01b038116155b15620000725760405163e6c4247b60e01b815260040160405180910390fd5b6001600160a01b0394851660805292841660a05290831660c052821660e052166101005262000129565b80516001600160a01b0381168114620000b457600080fd5b919050565b600080600080600060a08688031215620000d257600080fd5b620000dd866200009c565b9450620000ed602087016200009c565b9350620000fd604087016200009c565b92506200010d606087016200009c565b91506200011d608087016200009c565b90509295509295909350565b60805160a05160c05160e051610100516111de620001a46000396000818160e1015261032e01526000818161012f015281816109200152610a3101526000818161015601528181610789015261086a015260008181610108015281816105e301526106c3015260008181609d01526104bb01526111de6000f3fe608060405234801561001057600080fd5b50600436106100935760003560e01c8063b631e80b11610066578063b631e80b14610151578063bf333f2c14610178578063c62834681461018e578063e1a45218146101a1578063e3cb791d146101aa57600080fd5b806312261ee71461009857806346904840146100dc578063744fbc7a14610103578063776ca8011461012a575b600080fd5b6100bf7f000000000000000000000000000000000000000000000000000000000000000081565b6040516001600160a01b0390911681526020015b60405180910390f35b6100bf7f000000000000000000000000000000000000000000000000000000000000000081565b6100bf7f000000000000000000000000000000000000000000000000000000000000000081565b6100bf7f000000000000000000000000000000000000000000000000000000000000000081565b6100bf7f000000000000000000000000000000000000000000000000000000000000000081565b610180603281565b6040519081526020016100d3565b61018061019c366004610c77565b6101bd565b61018061271081565b6101806101b8366004610ce3565b6101f6565b60006101e7333060408501356101d66020870187610d67565b6001600160a01b0316929190610289565b6101f0826102f6565b92915050565b6000808061020686880188610d90565b6040805160a08101909152919350915060009080606081018061022c60208e018e610d67565b6001600160a01b031681526040808e0135602092830181905292845283820188905292830186905282518084019093523083528201529091506102728282338a8a6104a4565b61027b8a6102f6565b9a9950505050505050505050565b6040516001600160a01b0384811660248301528381166044830152606482018390526102f09186918216906323b872dd906084015b604051602081830303815290604052915060e01b6020820180516001600160e01b038381831617835250505050610531565b50505050565b60008061271061030b60326040860135610dc8565b6103159190610ddf565b90506000610327826040860135610e01565b905061036b7f00000000000000000000000000000000000000000000000000000000000000008361035b6020880188610d67565b6001600160a01b031691906105a6565b600061037d60e0860160c08701610e2a565b600281111561038e5761038e610e14565b036103a45761039d84826105dc565b92506103e3565b60016103b660e0860160c08701610e2a565b60028111156103c7576103c7610e14565b036103d65761039d8482610782565b6103e08482610919565b92505b83606001358310156104085760405163bb2875c360e01b815260040160405180910390fd5b61041d338461035b6040880160208901610d67565b61042d6040850160208601610d67565b6001600160a01b03166104436020860186610d67565b6001600160a01b0316337fe38f7cf47df9687665c88a9c4127d6929a9f4c1a087b796e3bb46db3679d4afe6040880135878761048560e08c0160c08d01610e2a565b6040516104959493929190610e4b565b60405180910390a45050919050565b60405163187945bd60e11b81526001600160a01b037f000000000000000000000000000000000000000000000000000000000000000016906330f28b7a906104f89088908890889088908890600401610e8d565b600060405180830381600087803b15801561051257600080fd5b505af1158015610526573d6000803e3d6000fd5b505050505050505050565b600080602060008451602086016000885af180610554576040513d6000823e3d81fd5b50506000513d9150811561056c578060011415610579565b6001600160a01b0384163b155b156102f057604051635274afe760e01b81526001600160a01b038516600482015260240160405180910390fd5b6040516001600160a01b038381166024830152604482018390526105d791859182169063a9059cbb906064016102be565b505050565b60006106207f0000000000000000000000000000000000000000000000000000000000000000836106106020870187610d67565b6001600160a01b03169190610b85565b60408051600280825260608201835260009260208301908036833701905050905061064e6020850185610d67565b8160008151811061066157610661610f3e565b6001600160a01b039092166020928302919091018201526106889060408601908601610d67565b8160018151811061069b5761069b610f3e565b6001600160a01b0392831660209182029290920101526040516338ed173960e01b81526000917f000000000000000000000000000000000000000000000000000000000000000016906338ed17399061070890879060608a0135908790309060a08d013590600401610f54565b6000604051808303816000875af1158015610727573d6000803e3d6000fd5b505050506040513d6000823e601f3d908101601f1916820160405261074f9190810190610fc5565b905080600182516107609190610e01565b8151811061077057610770610f3e565b60200260200101519250505092915050565b60006107b67f0000000000000000000000000000000000000000000000000000000000000000836106106020870187610d67565b60006107c56020850185610d67565b6107d56040860160208701610d67565b6107e560a0870160808801611083565b6040516001600160a01b03938416602482015292909116604483015262ffffff16606482015230608482015260a48101849052606085013560c4820152600060e48201526101040160408051601f198184030181529181526020820180516001600160e01b03166304e45aaf60e01b1790525190915060009081906001600160a01b037f000000000000000000000000000000000000000000000000000000000000000016906108969085906110cc565b6000604051808303816000865af19150503d80600081146108d3576040519150601f19603f3d011682016040523d82523d6000602084013e6108d8565b606091505b5091509150816108fb5760405163081ceff360e41b815260040160405180910390fd5b8080602001905181019061090f91906110e8565b9695505050505050565b600061094d7f0000000000000000000000000000000000000000000000000000000000000000836106106020870187610d67565b60408051808201825260018082526000602083018190528351828152808501909452919290816020015b606081526020019060019003908161097757905050905061099b6020860186610d67565b6109ab6040870160208801610d67565b6109bb60a0880160808901611083565b604080516001600160a01b039485166020820152939092169183019190915262ffffff1660608281019190915230608083015260a0820186905286013560c082015260e00160405160208183030381529060405281600081518110610a2257610a22610f3e565b602002602001018190525060007f00000000000000000000000000000000000000000000000000000000000000006001600160a01b031683838860a00135604051602401610a729392919061112d565b60408051601f198184030181529181526020820180516001600160e01b0316630d64d59360e21b17905251610aa791906110cc565b6000604051808303816000865af19150503d8060008114610ae4576040519150601f19603f3d011682016040523d82523d6000602084013e610ae9565b606091505b5050905080610b0b5760405163081ceff360e41b815260040160405180910390fd5b610b1b6040870160208801610d67565b6040516370a0823160e01b81523060048201526001600160a01b0391909116906370a0823190602401602060405180830381865afa158015610b61573d6000803e3d6000fd5b505050506040513d601f19601f8201168201806040525081019061090f91906110e8565b604080516001600160a01b038416602482015260448082018490528251808303909101815260649091019091526020810180516001600160e01b031663095ea7b360e01b179052610bd68482610c15565b6102f0576040516001600160a01b03848116602483015260006044830152610c0b91869182169063095ea7b3906064016102be565b6102f08482610531565b6000806000806020600086516020880160008a5af192503d9150600051905082801561090f57508115610c4b578060011461090f565b50505050506001600160a01b03163b151590565b600060e08284031215610c7157600080fd5b50919050565b600060e08284031215610c8957600080fd5b610c938383610c5f565b9392505050565b60008083601f840112610cac57600080fd5b50813567ffffffffffffffff811115610cc457600080fd5b602083019150836020828501011115610cdc57600080fd5b9250929050565b60008060008060006101208688031215610cfc57600080fd5b610d068787610c5f565b945060e086013567ffffffffffffffff80821115610d2357600080fd5b610d2f89838a01610c9a565b9096509450610100880135915080821115610d4957600080fd5b50610d5688828901610c9a565b969995985093965092949392505050565b600060208284031215610d7957600080fd5b81356001600160a01b0381168114610c9357600080fd5b60008060408385031215610da357600080fd5b50508035926020909101359150565b634e487b7160e01b600052601160045260246000fd5b80820281158282048414176101f0576101f0610db2565b600082610dfc57634e487b7160e01b600052601260045260246000fd5b500490565b818103818111156101f0576101f0610db2565b634e487b7160e01b600052602160045260246000fd5b600060208284031215610e3c57600080fd5b813560038110610c9357600080fd5b84815260208101849052604081018390526080810160038310610e7e57634e487b7160e01b600052602160045260246000fd5b82606083015295945050505050565b6000610100610eb083895180516001600160a01b03168252602090810151910152565b6020880151604084015260408801516060840152610ee4608084018880516001600160a01b03168252602090810151910152565b6001600160a01b03861660c084015260e0830181905282018390526101208385828501376000838501820152601f909301601f191690910190910195945050505050565b634e487b7160e01b600052604160045260246000fd5b634e487b7160e01b600052603260045260246000fd5b600060a082018783526020878185015260a0604085015281875180845260c086019150828901935060005b81811015610fa45784516001600160a01b031683529383019391830191600101610f7f565b50506001600160a01b03969096166060850152505050608001529392505050565b60006020808385031215610fd857600080fd5b825167ffffffffffffffff80821115610ff057600080fd5b818501915085601f83011261100457600080fd5b81518181111561101657611016610f28565b8060051b604051601f19603f8301168101818110858211171561103b5761103b610f28565b60405291825284820192508381018501918883111561105957600080fd5b938501935b828510156110775784518452938501939285019261105e565b98975050505050505050565b60006020828403121561109557600080fd5b813562ffffff81168114610c9357600080fd5b60005b838110156110c35781810151838201526020016110ab565b50506000910152565b600082516110de8184602087016110a8565b9190910192915050565b6000602082840312156110fa57600080fd5b5051919050565b600081518084526111198160208601602086016110a8565b601f01601f19169290920160200192915050565b6060815260006111406060830186611101565b6020838203818501528186518084528284019150828160051b85010183890160005b8381101561119057601f1987840301855261117e838351611101565b94860194925090850190600101611162565b5050809550505050505082604083015294935050505056fea2646970667358221220e1c3aacce0296f63a0612f3c0e76fa4b816fa0e6e56c5ba2d279d3c150bc240364736f6c63430008140033","opcodes":"PUSH2 0x120 PUSH1 0x40 MSTORE CALLVALUE DUP1 ISZERO PUSH3 0x12 JUMPI PUSH1 0x0 DUP1 REVERT JUMPDEST POP PUSH1 0x40 MLOAD PUSH3 0x1382 CODESIZE SUB DUP1 PUSH3 0x1382 DUP4 CODECOPY DUP2 ADD PUSH1 0x40 DUP2 SWAP1 MSTORE PUSH3 0x35 SWAP2 PUSH3 0xB9 JUMP JUMPDEST PUSH1 0x1 PUSH1 0x1 PUSH1 0xA0 SHL SUB DUP6 AND ISZERO DUP1 PUSH3 0x53 JUMPI POP PUSH1 0x1 PUSH1 0x1 PUSH1 0xA0 SHL SUB DUP2 AND ISZERO JUMPDEST ISZERO PUSH3 0x72 JUMPI PUSH1 0x40 MLOAD PUSH4 0xE6C4247B PUSH1 0xE0 SHL DUP2 MSTORE PUSH1 0x4 ADD PUSH1 0x40 MLOAD DUP1 SWAP2 SUB SWAP1 REVERT JUMPDEST PUSH1 0x1 PUSH1 0x1 PUSH1 0xA0 SHL SUB SWAP5 DUP6 AND PUSH1 0x80 MSTORE SWAP3 DUP5 AND PUSH1 0xA0 MSTORE SWAP1 DUP4 AND PUSH1 0xC0 MSTORE DUP3 AND PUSH1 0xE0 MSTORE AND PUSH2 0x100 MSTORE PUSH3 0x129 JUMP JUMPDEST DUP1 MLOAD PUSH1 0x1 PUSH1 0x1 PUSH1 0xA0 SHL SUB DUP2 AND DUP2 EQ PUSH3 0xB4 JUMPI PUSH1 0x0 DUP1 REVERT JUMPDEST SWAP2 SWAP1 POP JUMP JUMPDEST PUSH1 0x0 DUP1 PUSH1 0x0 DUP1 PUSH1 0x0 PUSH1 0xA0 DUP7 DUP9 SUB SLT ISZERO PUSH3 0xD2 JUMPI PUSH1 0x0 DUP1 REVERT JUMPDEST PUSH3 0xDD DUP7 PUSH3 0x9C JUMP JUMPDEST SWAP5 POP PUSH3 0xED PUSH1 0x20 DUP8 ADD PUSH3 0x9C JUMP JUMPDEST SWAP4 POP PUSH3 0xFD PUSH1 0x40 DUP8 ADD PUSH3 0x9C JUMP JUMPDEST SWAP3 POP PUSH3 0x10D PUSH1 0x60 DUP8 ADD PUSH3 0x9C JUMP JUMPDEST SWAP2 POP PUSH3 0x11D PUSH1 0x80 DUP8 ADD PUSH3 0x9C JUMP JUMPDEST SWAP1 POP SWAP3 SWAP6 POP SWAP3 SWAP6 SWAP1 SWAP4 POP JUMP JUMPDEST PUSH1 0x80 MLOAD PUSH1 0xA0 MLOAD PUSH1 0xC0 MLOAD PUSH1 0xE0 MLOAD PUSH2 0x100 MLOAD PUSH2 0x11DE PUSH3 0x1A4 PUSH1 0x0 CODECOPY PUSH1 0x0 DUP2 DUP2 PUSH1 0xE1 ADD MSTORE PUSH2 0x32E ADD MSTORE PUSH1 0x0 DUP2 DUP2 PUSH2 0x12F ADD MSTORE DUP2 DUP2 PUSH2 0x920 ADD MSTORE PUSH2 0xA31 ADD MSTORE PUSH1 0x0 DUP2 DUP2 PUSH2 0x156 ADD MSTORE DUP2 DUP2 PUSH2 0x789 ADD MSTORE PUSH2 0x86A ADD MSTORE PUSH1 0x0 DUP2 DUP2 PUSH2 0x108 ADD MSTORE DUP2 DUP2 PUSH2 0x5E3 ADD MSTORE PUSH2 0x6C3 ADD MSTORE PUSH1 0x0 DUP2 DUP2 PUSH1 0x9D ADD MSTORE PUSH2 0x4BB ADD MSTORE PUSH2 0x11DE PUSH1 0x0 RETURN INVALID PUSH1 0x80 PUSH1 0x40 MSTORE CALLVALUE DUP1 ISZERO PUSH2 0x10 JUMPI PUSH1 0x0 DUP1 REVERT JUMPDEST POP PUSH1 0x4 CALLDATASIZE LT PUSH2 0x93 JUMPI PUSH1 0x0 CALLDATALOAD PUSH1 0xE0 SHR DUP1 PUSH4 0xB631E80B GT PUSH2 0x66 JUMPI DUP1 PUSH4 0xB631E80B EQ PUSH2 0x151 JUMPI DUP1 PUSH4 0xBF333F2C EQ PUSH2 0x178 JUMPI DUP1 PUSH4 0xC6283468 EQ PUSH2 0x18E JUMPI DUP1 PUSH4 0xE1A45218 EQ PUSH2 0x1A1 JUMPI DUP1 PUSH4 0xE3CB791D EQ PUSH2 0x1AA JUMPI PUSH1 0x0 DUP1 REVERT JUMPDEST DUP1 PUSH4 0x12261EE7 EQ PUSH2 0x98 JUMPI DUP1 PUSH4 0x46904840 EQ PUSH2 0xDC JUMPI DUP1 PUSH4 0x744FBC7A EQ PUSH2 0x103 JUMPI DUP1 PUSH4 0x776CA801 EQ PUSH2 0x12A JUMPI JUMPDEST PUSH1 0x0 DUP1 REVERT JUMPDEST PUSH2 0xBF PUSH32 0x0 DUP2 JUMP JUMPDEST PUSH1 0x40 MLOAD PUSH1 0x1 PUSH1 0x1 PUSH1 0xA0 SHL SUB SWAP1 SWAP2 AND DUP2 MSTORE PUSH1 0x20 ADD JUMPDEST PUSH1 0x40 MLOAD DUP1 SWAP2 SUB SWAP1 RETURN JUMPDEST PUSH2 0xBF PUSH32 0x0 DUP2 JUMP JUMPDEST PUSH2 0xBF PUSH32 0x0 DUP2 JUMP JUMPDEST PUSH2 0xBF PUSH32 0x0 DUP2 JUMP JUMPDEST PUSH2 0xBF PUSH32 0x0 DUP2 JUMP JUMPDEST PUSH2 0x180 PUSH1 0x32 DUP2 JUMP JUMPDEST PUSH1 0x40 MLOAD SWAP1 DUP2 MSTORE PUSH1 0x20 ADD PUSH2 0xD3 JUMP JUMPDEST PUSH2 0x180 PUSH2 0x19C CALLDATASIZE PUSH1 0x4 PUSH2 0xC77 JUMP JUMPDEST PUSH2 0x1BD JUMP JUMPDEST PUSH2 0x180 PUSH2 0x2710 DUP2 JUMP JUMPDEST PUSH2 0x180 PUSH2 0x1B8 CALLDATASIZE PUSH1 0x4 PUSH2 0xCE3 JUMP JUMPDEST PUSH2 0x1F6 JUMP JUMPDEST PUSH1 0x0 PUSH2 0x1E7 CALLER ADDRESS PUSH1 0x40 DUP6 ADD CALLDATALOAD PUSH2 0x1D6 PUSH1 0x20 DUP8 ADD DUP8 PUSH2 0xD67 JUMP JUMPDEST PUSH1 0x1 PUSH1 0x1 PUSH1 0xA0 SHL SUB AND SWAP3 SWAP2 SWAP1 PUSH2 0x289 JUMP JUMPDEST PUSH2 0x1F0 DUP3 PUSH2 0x2F6 JUMP JUMPDEST SWAP3 SWAP2 POP POP JUMP JUMPDEST PUSH1 0x0 DUP1 DUP1 PUSH2 0x206 DUP7 DUP9 ADD DUP9 PUSH2 0xD90 JUMP JUMPDEST PUSH1 0x40 DUP1 MLOAD PUSH1 0xA0 DUP2 ADD SWAP1 SWAP2 MSTORE SWAP2 SWAP4 POP SWAP2 POP PUSH1 0x0 SWAP1 DUP1 PUSH1 0x60 DUP2 ADD DUP1 PUSH2 0x22C PUSH1 0x20 DUP15 ADD DUP15 PUSH2 0xD67 JUMP JUMPDEST PUSH1 0x1 PUSH1 0x1 PUSH1 0xA0 SHL SUB AND DUP2 MSTORE PUSH1 0x40 DUP1 DUP15 ADD CALLDATALOAD PUSH1 0x20 SWAP3 DUP4 ADD DUP2 SWAP1 MSTORE SWAP3 DUP5 MSTORE DUP4 DUP3 ADD DUP9 SWAP1 MSTORE SWAP3 DUP4 ADD DUP7 SWAP1 MSTORE DUP3 MLOAD DUP1 DUP5 ADD SWAP1 SWAP4 MSTORE ADDRESS DUP4 MSTORE DUP3 ADD MSTORE SWAP1 SWAP2 POP PUSH2 0x272 DUP3 DUP3 CALLER DUP11 DUP11 PUSH2 0x4A4 JUMP JUMPDEST PUSH2 0x27B DUP11 PUSH2 0x2F6 JUMP JUMPDEST SWAP11 SWAP10 POP POP POP POP POP POP POP POP POP POP JUMP JUMPDEST PUSH1 0x40 MLOAD PUSH1 0x1 PUSH1 0x1 PUSH1 0xA0 SHL SUB DUP5 DUP2 AND PUSH1 0x24 DUP4 ADD MSTORE DUP4 DUP2 AND PUSH1 0x44 DUP4 ADD MSTORE PUSH1 0x64 DUP3 ADD DUP4 SWAP1 MSTORE PUSH2 0x2F0 SWAP2 DUP7 SWAP2 DUP3 AND SWAP1 PUSH4 0x23B872DD SWAP1 PUSH1 0x84 ADD JUMPDEST PUSH1 0x40 MLOAD PUSH1 0x20 DUP2 DUP4 SUB SUB DUP2 MSTORE SWAP1 PUSH1 0x40 MSTORE SWAP2 POP PUSH1 0xE0 SHL PUSH1 0x20 DUP3 ADD DUP1 MLOAD PUSH1 0x1 PUSH1 0x1 PUSH1 0xE0 SHL SUB DUP4 DUP2 DUP4 AND OR DUP4 MSTORE POP POP POP POP PUSH2 0x531 JUMP JUMPDEST POP POP POP POP JUMP JUMPDEST PUSH1 0x0 DUP1 PUSH2 0x2710 PUSH2 0x30B PUSH1 0x32 PUSH1 0x40 DUP7 ADD CALLDATALOAD PUSH2 0xDC8 JUMP JUMPDEST PUSH2 0x315 SWAP2 SWAP1 PUSH2 0xDDF JUMP JUMPDEST SWAP1 POP PUSH1 0x0 PUSH2 0x327 DUP3 PUSH1 0x40 DUP7 ADD CALLDATALOAD PUSH2 0xE01 JUMP JUMPDEST SWAP1 POP PUSH2 0x36B PUSH32 0x0 DUP4 PUSH2 0x35B PUSH1 0x20 DUP9 ADD DUP9 PUSH2 0xD67 JUMP JUMPDEST PUSH1 0x1 PUSH1 0x1 PUSH1 0xA0 SHL SUB AND SWAP2 SWAP1 PUSH2 0x5A6 JUMP JUMPDEST PUSH1 0x0 PUSH2 0x37D PUSH1 0xE0 DUP7 ADD PUSH1 0xC0 DUP8 ADD PUSH2 0xE2A JUMP JUMPDEST PUSH1 0x2 DUP2 GT ISZERO PUSH2 0x38E JUMPI PUSH2 0x38E PUSH2 0xE14 JUMP JUMPDEST SUB PUSH2 0x3A4 JUMPI PUSH2 0x39D DUP5 DUP3 PUSH2 0x5DC JUMP JUMPDEST SWAP3 POP PUSH2 0x3E3 JUMP JUMPDEST PUSH1 0x1 PUSH2 0x3B6 PUSH1 0xE0 DUP7 ADD PUSH1 0xC0 DUP8 ADD PUSH2 0xE2A JUMP JUMPDEST PUSH1 0x2 DUP2 GT ISZERO PUSH2 0x3C7 JUMPI PUSH2 0x3C7 PUSH2 0xE14 JUMP JUMPDEST SUB PUSH2 0x3D6 JUMPI PUSH2 0x39D DUP5 DUP3 PUSH2 0x782 JUMP JUMPDEST PUSH2 0x3E0 DUP5 DUP3 PUSH2 0x919 JUMP JUMPDEST SWAP3 POP JUMPDEST DUP4 PUSH1 0x60 ADD CALLDATALOAD DUP4 LT ISZERO PUSH2 0x408 JUMPI PUSH1 0x40 MLOAD PUSH4 0xBB2875C3 PUSH1 0xE0 SHL DUP2 MSTORE PUSH1 0x4 ADD PUSH1 0x40 MLOAD DUP1 SWAP2 SUB SWAP1 REVERT JUMPDEST PUSH2 0x41D CALLER DUP5 PUSH2 0x35B PUSH1 0x40 DUP9 ADD PUSH1 0x20 DUP10 ADD PUSH2 0xD67 JUMP JUMPDEST PUSH2 0x42D PUSH1 0x40 DUP6 ADD PUSH1 0x20 DUP7 ADD PUSH2 0xD67 JUMP JUMPDEST PUSH1 0x1 PUSH1 0x1 PUSH1 0xA0 SHL SUB AND PUSH2 0x443 PUSH1 0x20 DUP7 ADD DUP7 PUSH2 0xD67 JUMP JUMPDEST PUSH1 0x1 PUSH1 0x1 PUSH1 0xA0 SHL SUB AND CALLER PUSH32 0xE38F7CF47DF9687665C88A9C4127D6929A9F4C1A087B796E3BB46DB3679D4AFE PUSH1 0x40 DUP9 ADD CALLDATALOAD DUP8 DUP8 PUSH2 0x485 PUSH1 0xE0 DUP13 ADD PUSH1 0xC0 DUP14 ADD PUSH2 0xE2A JUMP JUMPDEST PUSH1 0x40 MLOAD PUSH2 0x495 SWAP5 SWAP4 SWAP3 SWAP2 SWAP1 PUSH2 0xE4B JUMP JUMPDEST PUSH1 0x40 MLOAD DUP1 SWAP2 SUB SWAP1 LOG4 POP POP SWAP2 SWAP1 POP JUMP JUMPDEST PUSH1 0x40 MLOAD PUSH4 0x187945BD PUSH1 0xE1 SHL DUP2 MSTORE PUSH1 0x1 PUSH1 0x1 PUSH1 0xA0 SHL SUB PUSH32 0x0 AND SWAP1 PUSH4 0x30F28B7A SWAP1 PUSH2 0x4F8 SWAP1 DUP9 SWAP1 DUP9 SWAP1 DUP9 SWAP1 DUP9 SWAP1 DUP9 SWAP1 PUSH1 0x4 ADD PUSH2 0xE8D JUMP JUMPDEST PUSH1 0x0 PUSH1 0x40 MLOAD DUP1 DUP4 SUB DUP2 PUSH1 0x0 DUP8 DUP1 EXTCODESIZE ISZERO DUP1 ISZERO PUSH2 0x512 JUMPI PUSH1 0x0 DUP1 REVERT JUMPDEST POP GAS CALL ISZERO DUP1 ISZERO PUSH2 0x526 JUMPI RETURNDATASIZE PUSH1 0x0 DUP1 RETURNDATACOPY RETURNDATASIZE PUSH1 0x0 REVERT JUMPDEST POP POP POP POP POP POP POP POP POP JUMP JUMPDEST PUSH1 0x0 DUP1 PUSH1 0x20 PUSH1 0x0 DUP5 MLOAD PUSH1 0x20 DUP7 ADD PUSH1 0x0 DUP9 GAS CALL DUP1 PUSH2 0x554 JUMPI PUSH1 0x40 MLOAD RETURNDATASIZE PUSH1 0x0 DUP3 RETURNDATACOPY RETURNDATASIZE DUP2 REVERT JUMPDEST POP POP PUSH1 0x0 MLOAD RETURNDATASIZE SWAP2 POP DUP2 ISZERO PUSH2 0x56C JUMPI DUP1 PUSH1 0x1 EQ ISZERO PUSH2 0x579 JUMP JUMPDEST PUSH1 0x1 PUSH1 0x1 PUSH1 0xA0 SHL SUB DUP5 AND EXTCODESIZE ISZERO JUMPDEST ISZERO PUSH2 0x2F0 JUMPI PUSH1 0x40 MLOAD PUSH4 0x5274AFE7 PUSH1 0xE0 SHL DUP2 MSTORE PUSH1 0x1 PUSH1 0x1 PUSH1 0xA0 SHL SUB DUP6 AND PUSH1 0x4 DUP3 ADD MSTORE PUSH1 0x24 ADD PUSH1 0x40 MLOAD DUP1 SWAP2 SUB SWAP1 REVERT JUMPDEST PUSH1 0x40 MLOAD PUSH1 0x1 PUSH1 0x1 PUSH1 0xA0 SHL SUB DUP4 DUP2 AND PUSH1 0x24 DUP4 ADD MSTORE PUSH1 0x44 DUP3 ADD DUP4 SWAP1 MSTORE PUSH2 0x5D7 SWAP2 DUP6 SWAP2 DUP3 AND SWAP1 PUSH4 0xA9059CBB SWAP1 PUSH1 0x64 ADD PUSH2 0x2BE JUMP JUMPDEST POP POP POP JUMP JUMPDEST PUSH1 0x0 PUSH2 0x620 PUSH32 0x0 DUP4 PUSH2 0x610 PUSH1 0x20 DUP8 ADD DUP8 PUSH2 0xD67 JUMP JUMPDEST PUSH1 0x1 PUSH1 0x1 PUSH1 0xA0 SHL SUB AND SWAP2 SWAP1 PUSH2 0xB85 JUMP JUMPDEST PUSH1 0x40 DUP1 MLOAD PUSH1 0x2 DUP1 DUP3 MSTORE PUSH1 0x60 DUP3 ADD DUP4 MSTORE PUSH1 0x0 SWAP3 PUSH1 0x20 DUP4 ADD SWAP1 DUP1 CALLDATASIZE DUP4 CALLDATACOPY ADD SWAP1 POP POP SWAP1 POP PUSH2 0x64E PUSH1 0x20 DUP6 ADD DUP6 PUSH2 0xD67 JUMP JUMPDEST DUP2 PUSH1 0x0 DUP2 MLOAD DUP2 LT PUSH2 0x661 JUMPI PUSH2 0x661 PUSH2 0xF3E JUMP JUMPDEST PUSH1 0x1 PUSH1 0x1 PUSH1 0xA0 SHL SUB SWAP1 SWAP3 AND PUSH1 0x20 SWAP3 DUP4 MUL SWAP2 SWAP1 SWAP2 ADD DUP3 ADD MSTORE PUSH2 0x688 SWAP1 PUSH1 0x40 DUP7 ADD SWAP1 DUP7 ADD PUSH2 0xD67 JUMP JUMPDEST DUP2 PUSH1 0x1 DUP2 MLOAD DUP2 LT PUSH2 0x69B JUMPI PUSH2 0x69B PUSH2 0xF3E JUMP JUMPDEST PUSH1 0x1 PUSH1 0x1 PUSH1 0xA0 SHL SUB SWAP3 DUP4 AND PUSH1 0x20 SWAP2 DUP3 MUL SWAP3 SWAP1 SWAP3 ADD ADD MSTORE PUSH1 0x40 MLOAD PUSH4 0x38ED1739 PUSH1 0xE0 SHL DUP2 MSTORE PUSH1 0x0 SWAP2 PUSH32 0x0 AND SWAP1 PUSH4 0x38ED1739 SWAP1 PUSH2 0x708 SWAP1 DUP8 SWAP1 PUSH1 0x60 DUP11 ADD CALLDATALOAD SWAP1 DUP8 SWAP1 ADDRESS SWAP1 PUSH1 0xA0 DUP14 ADD CALLDATALOAD SWAP1 PUSH1 0x4 ADD PUSH2 0xF54 JUMP JUMPDEST PUSH1 0x0 PUSH1 0x40 MLOAD DUP1 DUP4 SUB DUP2 PUSH1 0x0 DUP8 GAS CALL ISZERO DUP1 ISZERO PUSH2 0x727 JUMPI RETURNDATASIZE PUSH1 0x0 DUP1 RETURNDATACOPY RETURNDATASIZE PUSH1 0x0 REVERT JUMPDEST POP POP POP POP PUSH1 0x40 MLOAD RETURNDATASIZE PUSH1 0x0 DUP3 RETURNDATACOPY PUSH1 0x1F RETURNDATASIZE SWAP1 DUP2 ADD PUSH1 0x1F NOT AND DUP3 ADD PUSH1 0x40 MSTORE PUSH2 0x74F SWAP2 SWAP1 DUP2 ADD SWAP1 PUSH2 0xFC5 JUMP JUMPDEST SWAP1 POP DUP1 PUSH1 0x1 DUP3 MLOAD PUSH2 0x760 SWAP2 SWAP1 PUSH2 0xE01 JUMP JUMPDEST DUP2 MLOAD DUP2 LT PUSH2 0x770 JUMPI PUSH2 0x770 PUSH2 0xF3E JUMP JUMPDEST PUSH1 0x20 MUL PUSH1 0x20 ADD ADD MLOAD SWAP3 POP POP POP SWAP3 SWAP2 POP POP JUMP JUMPDEST PUSH1 0x0 PUSH2 0x7B6 PUSH32 0x0 DUP4 PUSH2 0x610 PUSH1 0x20 DUP8 ADD DUP8 PUSH2 0xD67 JUMP JUMPDEST PUSH1 0x0 PUSH2 0x7C5 PUSH1 0x20 DUP6 ADD DUP6 PUSH2 0xD67 JUMP JUMPDEST PUSH2 0x7D5 PUSH1 0x40 DUP7 ADD PUSH1 0x20 DUP8 ADD PUSH2 0xD67 JUMP JUMPDEST PUSH2 0x7E5 PUSH1 0xA0 DUP8 ADD PUSH1 0x80 DUP9 ADD PUSH2 0x1083 JUMP JUMPDEST PUSH1 0x40 MLOAD PUSH1 0x1 PUSH1 0x1 PUSH1 0xA0 SHL SUB SWAP4 DUP5 AND PUSH1 0x24 DUP3 ADD MSTORE SWAP3 SWAP1 SWAP2 AND PUSH1 0x44 DUP4 ADD MSTORE PUSH3 0xFFFFFF AND PUSH1 0x64 DUP3 ADD MSTORE ADDRESS PUSH1 0x84 DUP3 ADD MSTORE PUSH1 0xA4 DUP2 ADD DUP5 SWAP1 MSTORE PUSH1 0x60 DUP6 ADD CALLDATALOAD PUSH1 0xC4 DUP3 ADD MSTORE PUSH1 0x0 PUSH1 0xE4 DUP3 ADD MSTORE PUSH2 0x104 ADD PUSH1 0x40 DUP1 MLOAD PUSH1 0x1F NOT DUP2 DUP5 SUB ADD DUP2 MSTORE SWAP2 DUP2 MSTORE PUSH1 0x20 DUP3 ADD DUP1 MLOAD PUSH1 0x1 PUSH1 0x1 PUSH1 0xE0 SHL SUB AND PUSH4 0x4E45AAF PUSH1 0xE0 SHL OR SWAP1 MSTORE MLOAD SWAP1 SWAP2 POP PUSH1 0x0 SWAP1 DUP2 SWAP1 PUSH1 0x1 PUSH1 0x1 PUSH1 0xA0 SHL SUB PUSH32 0x0 AND SWAP1 PUSH2 0x896 SWAP1 DUP6 SWAP1 PUSH2 0x10CC JUMP JUMPDEST PUSH1 0x0 PUSH1 0x40 MLOAD DUP1 DUP4 SUB DUP2 PUSH1 0x0 DUP7 GAS CALL SWAP2 POP POP RETURNDATASIZE DUP1 PUSH1 0x0 DUP2 EQ PUSH2 0x8D3 JUMPI PUSH1 0x40 MLOAD SWAP2 POP PUSH1 0x1F NOT PUSH1 0x3F RETURNDATASIZE ADD AND DUP3 ADD PUSH1 0x40 MSTORE RETURNDATASIZE DUP3 MSTORE RETURNDATASIZE PUSH1 0x0 PUSH1 0x20 DUP5 ADD RETURNDATACOPY PUSH2 0x8D8 JUMP JUMPDEST PUSH1 0x60 SWAP2 POP JUMPDEST POP SWAP2 POP SWAP2 POP DUP2 PUSH2 0x8FB JUMPI PUSH1 0x40 MLOAD PUSH4 0x81CEFF3 PUSH1 0xE4 SHL DUP2 MSTORE PUSH1 0x4 ADD PUSH1 0x40 MLOAD DUP1 SWAP2 SUB SWAP1 REVERT JUMPDEST DUP1 DUP1 PUSH1 0x20 ADD SWAP1 MLOAD DUP2 ADD SWAP1 PUSH2 0x90F SWAP2 SWAP1 PUSH2 0x10E8 JUMP JUMPDEST SWAP7 SWAP6 POP POP POP POP POP POP JUMP JUMPDEST PUSH1 0x0 PUSH2 0x94D PUSH32 0x0 DUP4 PUSH2 0x610 PUSH1 0x20 DUP8 ADD DUP8 PUSH2 0xD67 JUMP JUMPDEST PUSH1 0x40 DUP1 MLOAD DUP1 DUP3 ADD DUP3 MSTORE PUSH1 0x1 DUP1 DUP3 MSTORE PUSH1 0x0 PUSH1 0x20 DUP4 ADD DUP2 SWAP1 MSTORE DUP4 MLOAD DUP3 DUP2 MSTORE DUP1 DUP6 ADD SWAP1 SWAP5 MSTORE SWAP2 SWAP3 SWAP1 DUP2 PUSH1 0x20 ADD JUMPDEST PUSH1 0x60 DUP2 MSTORE PUSH1 0x20 ADD SWAP1 PUSH1 0x1 SWAP1 SUB SWAP1 DUP2 PUSH2 0x977 JUMPI SWAP1 POP POP SWAP1 POP PUSH2 0x99B PUSH1 0x20 DUP7 ADD DUP7 PUSH2 0xD67 JUMP JUMPDEST PUSH2 0x9AB PUSH1 0x40 DUP8 ADD PUSH1 0x20 DUP9 ADD PUSH2 0xD67 JUMP JUMPDEST PUSH2 0x9BB PUSH1 0xA0 DUP9 ADD PUSH1 0x80 DUP10 ADD PUSH2 0x1083 JUMP JUMPDEST PUSH1 0x40 DUP1 MLOAD PUSH1 0x1 PUSH1 0x1 PUSH1 0xA0 SHL SUB SWAP5 DUP6 AND PUSH1 0x20 DUP3 ADD MSTORE SWAP4 SWAP1 SWAP3 AND SWAP2 DUP4 ADD SWAP2 SWAP1 SWAP2 MSTORE PUSH3 0xFFFFFF AND PUSH1 0x60 DUP3 DUP2 ADD SWAP2 SWAP1 SWAP2 MSTORE ADDRESS PUSH1 0x80 DUP4 ADD MSTORE PUSH1 0xA0 DUP3 ADD DUP7 SWAP1 MSTORE DUP7 ADD CALLDATALOAD PUSH1 0xC0 DUP3 ADD MSTORE PUSH1 0xE0 ADD PUSH1 0x40 MLOAD PUSH1 0x20 DUP2 DUP4 SUB SUB DUP2 MSTORE SWAP1 PUSH1 0x40 MSTORE DUP2 PUSH1 0x0 DUP2 MLOAD DUP2 LT PUSH2 0xA22 JUMPI PUSH2 0xA22 PUSH2 0xF3E JUMP JUMPDEST PUSH1 0x20 MUL PUSH1 0x20 ADD ADD DUP2 SWAP1 MSTORE POP PUSH1 0x0 PUSH32 0x0 PUSH1 0x1 PUSH1 0x1 PUSH1 0xA0 SHL SUB AND DUP4 DUP4 DUP9 PUSH1 0xA0 ADD CALLDATALOAD PUSH1 0x40 MLOAD PUSH1 0x24 ADD PUSH2 0xA72 SWAP4 SWAP3 SWAP2 SWAP1 PUSH2 0x112D JUMP JUMPDEST PUSH1 0x40 DUP1 MLOAD PUSH1 0x1F NOT DUP2 DUP5 SUB ADD DUP2 MSTORE SWAP2 DUP2 MSTORE PUSH1 0x20 DUP3 ADD DUP1 MLOAD PUSH1 0x1 PUSH1 0x1 PUSH1 0xE0 SHL SUB AND PUSH4 0xD64D593 PUSH1 0xE2 SHL OR SWAP1 MSTORE MLOAD PUSH2 0xAA7 SWAP2 SWAP1 PUSH2 0x10CC JUMP JUMPDEST PUSH1 0x0 PUSH1 0x40 MLOAD DUP1 DUP4 SUB DUP2 PUSH1 0x0 DUP7 GAS CALL SWAP2 POP POP RETURNDATASIZE DUP1 PUSH1 0x0 DUP2 EQ PUSH2 0xAE4 JUMPI PUSH1 0x40 MLOAD SWAP2 POP PUSH1 0x1F NOT PUSH1 0x3F RETURNDATASIZE ADD AND DUP3 ADD PUSH1 0x40 MSTORE RETURNDATASIZE DUP3 MSTORE RETURNDATASIZE PUSH1 0x0 PUSH1 0x20 DUP5 ADD RETURNDATACOPY PUSH2 0xAE9 JUMP JUMPDEST PUSH1 0x60 SWAP2 POP JUMPDEST POP POP SWAP1 POP DUP1 PUSH2 0xB0B JUMPI PUSH1 0x40 MLOAD PUSH4 0x81CEFF3 PUSH1 0xE4 SHL DUP2 MSTORE PUSH1 0x4 ADD PUSH1 0x40 MLOAD DUP1 SWAP2 SUB SWAP1 REVERT JUMPDEST PUSH2 0xB1B PUSH1 0x40 DUP8 ADD PUSH1 0x20 DUP9 ADD PUSH2 0xD67 JUMP JUMPDEST PUSH1 0x40 MLOAD PUSH4 0x70A08231 PUSH1 0xE0 SHL DUP2 MSTORE ADDRESS PUSH1 0x4 DUP3 ADD MSTORE PUSH1 0x1 PUSH1 0x1 PUSH1 0xA0 SHL SUB SWAP2 SWAP1 SWAP2 AND SWAP1 PUSH4 0x70A08231 SWAP1 PUSH1 0x24 ADD PUSH1 0x20 PUSH1 0x40 MLOAD DUP1 DUP4 SUB DUP2 DUP7 GAS STATICCALL ISZERO DUP1 ISZERO PUSH2 0xB61 JUMPI RETURNDATASIZE PUSH1 0x0 DUP1 RETURNDATACOPY RETURNDATASIZE PUSH1 0x0 REVERT JUMPDEST POP POP POP POP PUSH1 0x40 MLOAD RETURNDATASIZE PUSH1 0x1F NOT PUSH1 0x1F DUP3 ADD AND DUP3 ADD DUP1 PUSH1 0x40 MSTORE POP DUP2 ADD SWAP1 PUSH2 0x90F SWAP2 SWAP1 PUSH2 0x10E8 JUMP JUMPDEST PUSH1 0x40 DUP1 MLOAD PUSH1 0x1 PUSH1 0x1 PUSH1 0xA0 SHL SUB DUP5 AND PUSH1 0x24 DUP3 ADD MSTORE PUSH1 0x44 DUP1 DUP3 ADD DUP5 SWAP1 MSTORE DUP3 MLOAD DUP1 DUP4 SUB SWAP1 SWAP2 ADD DUP2 MSTORE PUSH1 0x64 SWAP1 SWAP2 ADD SWAP1 SWAP2 MSTORE PUSH1 0x20 DUP2 ADD DUP1 MLOAD PUSH1 0x1 PUSH1 0x1 PUSH1 0xE0 SHL SUB AND PUSH4 0x95EA7B3 PUSH1 0xE0 SHL OR SWAP1 MSTORE PUSH2 0xBD6 DUP5 DUP3 PUSH2 0xC15 JUMP JUMPDEST PUSH2 0x2F0 JUMPI PUSH1 0x40 MLOAD PUSH1 0x1 PUSH1 0x1 PUSH1 0xA0 SHL SUB DUP5 DUP2 AND PUSH1 0x24 DUP4 ADD MSTORE PUSH1 0x0 PUSH1 0x44 DUP4 ADD MSTORE PUSH2 0xC0B SWAP2 DUP7 SWAP2 DUP3 AND SWAP1 PUSH4 0x95EA7B3 SWAP1 PUSH1 0x64 ADD PUSH2 0x2BE JUMP JUMPDEST PUSH2 0x2F0 DUP5 DUP3 PUSH2 0x531 JUMP JUMPDEST PUSH1 0x0 DUP1 PUSH1 0x0 DUP1 PUSH1 0x20 PUSH1 0x0 DUP7 MLOAD PUSH1 0x20 DUP9 ADD PUSH1 0x0 DUP11 GAS CALL SWAP3 POP RETURNDATASIZE SWAP2 POP PUSH1 0x0 MLOAD SWAP1 POP DUP3 DUP1 ISZERO PUSH2 0x90F JUMPI POP DUP2 ISZERO PUSH2 0xC4B JUMPI DUP1 PUSH1 0x1 EQ PUSH2 0x90F JUMP JUMPDEST POP POP POP POP POP PUSH1 0x1 PUSH1 0x1 PUSH1 0xA0 SHL SUB AND EXTCODESIZE ISZERO ISZERO SWAP1 JUMP JUMPDEST PUSH1 0x0 PUSH1 0xE0 DUP3 DUP5 SUB SLT ISZERO PUSH2 0xC71 JUMPI PUSH1 0x0 DUP1 REVERT JUMPDEST POP SWAP2 SWAP1 POP JUMP JUMPDEST PUSH1 0x0 PUSH1 0xE0 DUP3 DUP5 SUB SLT ISZERO PUSH2 0xC89 JUMPI PUSH1 0x0 DUP1 REVERT JUMPDEST PUSH2 0xC93 DUP4 DUP4 PUSH2 0xC5F JUMP JUMPDEST SWAP4 SWAP3 POP POP POP JUMP JUMPDEST PUSH1 0x0 DUP1 DUP4 PUSH1 0x1F DUP5 ADD SLT PUSH2 0xCAC JUMPI PUSH1 0x0 DUP1 REVERT JUMPDEST POP DUP2 CALLDATALOAD PUSH8 0xFFFFFFFFFFFFFFFF DUP2 GT ISZERO PUSH2 0xCC4 JUMPI PUSH1 0x0 DUP1 REVERT JUMPDEST PUSH1 0x20 DUP4 ADD SWAP2 POP DUP4 PUSH1 0x20 DUP3 DUP6 ADD ADD GT ISZERO PUSH2 0xCDC JUMPI PUSH1 0x0 DUP1 REVERT JUMPDEST SWAP3 POP SWAP3 SWAP1 POP JUMP JUMPDEST PUSH1 0x0 DUP1 PUSH1 0x0 DUP1 PUSH1 0x0 PUSH2 0x120 DUP7 DUP9 SUB SLT ISZERO PUSH2 0xCFC JUMPI PUSH1 0x0 DUP1 REVERT JUMPDEST PUSH2 0xD06 DUP8 DUP8 PUSH2 0xC5F JUMP JUMPDEST SWAP5 POP PUSH1 0xE0 DUP7 ADD CALLDATALOAD PUSH8 0xFFFFFFFFFFFFFFFF DUP1 DUP3 GT ISZERO PUSH2 0xD23 JUMPI PUSH1 0x0 DUP1 REVERT JUMPDEST PUSH2 0xD2F DUP10 DUP4 DUP11 ADD PUSH2 0xC9A JUMP JUMPDEST SWAP1 SWAP7 POP SWAP5 POP PUSH2 0x100 DUP9 ADD CALLDATALOAD SWAP2 POP DUP1 DUP3 GT ISZERO PUSH2 0xD49 JUMPI PUSH1 0x0 DUP1 REVERT JUMPDEST POP PUSH2 0xD56 DUP9 DUP3 DUP10 ADD PUSH2 0xC9A JUMP JUMPDEST SWAP7 SWAP10 SWAP6 SWAP9 POP SWAP4 SWAP7 POP SWAP3 SWAP5 SWAP4 SWAP3 POP POP POP JUMP JUMPDEST PUSH1 0x0 PUSH1 0x20 DUP3 DUP5 SUB SLT ISZERO PUSH2 0xD79 JUMPI PUSH1 0x0 DUP1 REVERT JUMPDEST DUP2 CALLDATALOAD PUSH1 0x1 PUSH1 0x1 PUSH1 0xA0 SHL SUB DUP2 AND DUP2 EQ PUSH2 0xC93 JUMPI PUSH1 0x0 DUP1 REVERT JUMPDEST PUSH1 0x0 DUP1 PUSH1 0x40 DUP4 DUP6 SUB SLT ISZERO PUSH2 0xDA3 JUMPI PUSH1 0x0 DUP1 REVERT JUMPDEST POP POP DUP1 CALLDATALOAD SWAP3 PUSH1 0x20 SWAP1 SWAP2 ADD CALLDATALOAD SWAP2 POP JUMP JUMPDEST PUSH4 0x4E487B71 PUSH1 0xE0 SHL PUSH1 0x0 MSTORE PUSH1 0x11 PUSH1 0x4 MSTORE PUSH1 0x24 PUSH1 0x0 REVERT JUMPDEST DUP1 DUP3 MUL DUP2 ISZERO DUP3 DUP3 DIV DUP5 EQ OR PUSH2 0x1F0 JUMPI PUSH2 0x1F0 PUSH2 0xDB2 JUMP JUMPDEST PUSH1 0x0 DUP3 PUSH2 0xDFC JUMPI PUSH4 0x4E487B71 PUSH1 0xE0 SHL PUSH1 0x0 MSTORE PUSH1 0x12 PUSH1 0x4 MSTORE PUSH1 0x24 PUSH1 0x0 REVERT JUMPDEST POP DIV SWAP1 JUMP JUMPDEST DUP2 DUP2 SUB DUP2 DUP2 GT ISZERO PUSH2 0x1F0 JUMPI PUSH2 0x1F0 PUSH2 0xDB2 JUMP JUMPDEST PUSH4 0x4E487B71 PUSH1 0xE0 SHL PUSH1 0x0 MSTORE PUSH1 0x21 PUSH1 0x4 MSTORE PUSH1 0x24 PUSH1 0x0 REVERT JUMPDEST PUSH1 0x0 PUSH1 0x20 DUP3 DUP5 SUB SLT ISZERO PUSH2 0xE3C JUMPI PUSH1 0x0 DUP1 REVERT JUMPDEST DUP2 CALLDATALOAD PUSH1 0x3 DUP2 LT PUSH2 0xC93 JUMPI PUSH1 0x0 DUP1 REVERT JUMPDEST DUP5 DUP2 MSTORE PUSH1 0x20 DUP2 ADD DUP5 SWAP1 MSTORE PUSH1 0x40 DUP2 ADD DUP4 SWAP1 MSTORE PUSH1 0x80 DUP2 ADD PUSH1 0x3 DUP4 LT PUSH2 0xE7E JUMPI PUSH4 0x4E487B71 PUSH1 0xE0 SHL PUSH1 0x0 MSTORE PUSH1 0x21 PUSH1 0x4 MSTORE PUSH1 0x24 PUSH1 0x0 REVERT JUMPDEST DUP3 PUSH1 0x60 DUP4 ADD MSTORE SWAP6 SWAP5 POP POP POP POP POP JUMP JUMPDEST PUSH1 0x0 PUSH2 0x100 PUSH2 0xEB0 DUP4 DUP10 MLOAD DUP1 MLOAD PUSH1 0x1 PUSH1 0x1 PUSH1 0xA0 SHL SUB AND DUP3 MSTORE PUSH1 0x20 SWAP1 DUP2 ADD MLOAD SWAP2 ADD MSTORE JUMP JUMPDEST PUSH1 0x20 DUP9 ADD MLOAD PUSH1 0x40 DUP5 ADD MSTORE PUSH1 0x40 DUP9 ADD MLOAD PUSH1 0x60 DUP5 ADD MSTORE PUSH2 0xEE4 PUSH1 0x80 DUP5 ADD DUP9 DUP1 MLOAD PUSH1 0x1 PUSH1 0x1 PUSH1 0xA0 SHL SUB AND DUP3 MSTORE PUSH1 0x20 SWAP1 DUP2 ADD MLOAD SWAP2 ADD MSTORE JUMP JUMPDEST PUSH1 0x1 PUSH1 0x1 PUSH1 0xA0 SHL SUB DUP7 AND PUSH1 0xC0 DUP5 ADD MSTORE PUSH1 0xE0 DUP4 ADD DUP2 SWAP1 MSTORE DUP3 ADD DUP4 SWAP1 MSTORE PUSH2 0x120 DUP4 DUP6 DUP3 DUP6 ADD CALLDATACOPY PUSH1 0x0 DUP4 DUP6 ADD DUP3 ADD MSTORE PUSH1 0x1F SWAP1 SWAP4 ADD PUSH1 0x1F NOT AND SWAP1 SWAP2 ADD SWAP1 SWAP2 ADD SWAP6 SWAP5 POP POP POP POP POP JUMP JUMPDEST PUSH4 0x4E487B71 PUSH1 0xE0 SHL PUSH1 0x0 MSTORE PUSH1 0x41 PUSH1 0x4 MSTORE PUSH1 0x24 PUSH1 0x0 REVERT JUMPDEST PUSH4 0x4E487B71 PUSH1 0xE0 SHL PUSH1 0x0 MSTORE PUSH1 0x32 PUSH1 0x4 MSTORE PUSH1 0x24 PUSH1 0x0 REVERT JUMPDEST PUSH1 0x0 PUSH1 0xA0 DUP3 ADD DUP8 DUP4 MSTORE PUSH1 0x20 DUP8 DUP2 DUP6 ADD MSTORE PUSH1 0xA0 PUSH1 0x40 DUP6 ADD MSTORE DUP2 DUP8 MLOAD DUP1 DUP5 MSTORE PUSH1 0xC0 DUP7 ADD SWAP2 POP DUP3 DUP10 ADD SWAP4 POP PUSH1 0x0 JUMPDEST DUP2 DUP2 LT ISZERO PUSH2 0xFA4 JUMPI DUP5 MLOAD PUSH1 0x1 PUSH1 0x1 PUSH1 0xA0 SHL SUB AND DUP4 MSTORE SWAP4 DUP4 ADD SWAP4 SWAP2 DUP4 ADD SWAP2 PUSH1 0x1 ADD PUSH2 0xF7F JUMP JUMPDEST POP POP PUSH1 0x1 PUSH1 0x1 PUSH1 0xA0 SHL SUB SWAP7 SWAP1 SWAP7 AND PUSH1 0x60 DUP6 ADD MSTORE POP POP POP PUSH1 0x80 ADD MSTORE SWAP4 SWAP3 POP POP POP JUMP JUMPDEST PUSH1 0x0 PUSH1 0x20 DUP1 DUP4 DUP6 SUB SLT ISZERO PUSH2 0xFD8 JUMPI PUSH1 0x0 DUP1 REVERT JUMPDEST DUP3 MLOAD PUSH8 0xFFFFFFFFFFFFFFFF DUP1 DUP3 GT ISZERO PUSH2 0xFF0 JUMPI PUSH1 0x0 DUP1 REVERT JUMPDEST DUP2 DUP6 ADD SWAP2 POP DUP6 PUSH1 0x1F DUP4 ADD SLT PUSH2 0x1004 JUMPI PUSH1 0x0 DUP1 REVERT JUMPDEST DUP2 MLOAD DUP2 DUP2 GT ISZERO PUSH2 0x1016 JUMPI PUSH2 0x1016 PUSH2 0xF28 JUMP JUMPDEST DUP1 PUSH1 0x5 SHL PUSH1 0x40 MLOAD PUSH1 0x1F NOT PUSH1 0x3F DUP4 ADD AND DUP2 ADD DUP2 DUP2 LT DUP6 DUP3 GT OR ISZERO PUSH2 0x103B JUMPI PUSH2 0x103B PUSH2 0xF28 JUMP JUMPDEST PUSH1 0x40 MSTORE SWAP2 DUP3 MSTORE DUP5 DUP3 ADD SWAP3 POP DUP4 DUP2 ADD DUP6 ADD SWAP2 DUP9 DUP4 GT ISZERO PUSH2 0x1059 JUMPI PUSH1 0x0 DUP1 REVERT JUMPDEST SWAP4 DUP6 ADD SWAP4 JUMPDEST DUP3 DUP6 LT ISZERO PUSH2 0x1077 JUMPI DUP5 MLOAD DUP5 MSTORE SWAP4 DUP6 ADD SWAP4 SWAP3 DUP6 ADD SWAP3 PUSH2 0x105E JUMP JUMPDEST SWAP9 SWAP8 POP POP POP POP POP POP POP POP JUMP JUMPDEST PUSH1 0x0 PUSH1 0x20 DUP3 DUP5 SUB SLT ISZERO PUSH2 0x1095 JUMPI PUSH1 0x0 DUP1 REVERT JUMPDEST DUP2 CALLDATALOAD PUSH3 0xFFFFFF DUP2 AND DUP2 EQ PUSH2 0xC93 JUMPI PUSH1 0x0 DUP1 REVERT JUMPDEST PUSH1 0x0 JUMPDEST DUP4 DUP2 LT ISZERO PUSH2 0x10C3 JUMPI DUP2 DUP2 ADD MLOAD DUP4 DUP3 ADD MSTORE PUSH1 0x20 ADD PUSH2 0x10AB JUMP JUMPDEST POP POP PUSH1 0x0 SWAP2 ADD MSTORE JUMP JUMPDEST PUSH1 0x0 DUP3 MLOAD PUSH2 0x10DE DUP2 DUP5 PUSH1 0x20 DUP8 ADD PUSH2 0x10A8 JUMP JUMPDEST SWAP2 SWAP1 SWAP2 ADD SWAP3 SWAP2 POP POP JUMP JUMPDEST PUSH1 0x0 PUSH1 0x20 DUP3 DUP5 SUB SLT ISZERO PUSH2 0x10FA JUMPI PUSH1 0x0 DUP1 REVERT JUMPDEST POP MLOAD SWAP2 SWAP1 POP JUMP JUMPDEST PUSH1 0x0 DUP2 MLOAD DUP1 DUP5 MSTORE PUSH2 0x1119 DUP2 PUSH1 0x20 DUP7 ADD PUSH1 0x20 DUP7 ADD PUSH2 0x10A8 JUMP JUMPDEST PUSH1 0x1F ADD PUSH1 0x1F NOT AND SWAP3 SWAP1 SWAP3 ADD PUSH1 0x20 ADD SWAP3 SWAP2 POP POP JUMP JUMPDEST PUSH1 0x60 DUP2 MSTORE PUSH1 0x0 PUSH2 0x1140 PUSH1 0x60 DUP4 ADD DUP7 PUSH2 0x1101 JUMP JUMPDEST PUSH1 0x20 DUP4 DUP3 SUB DUP2 DUP6 ADD MSTORE DUP2 DUP7 MLOAD DUP1 DUP5 MSTORE DUP3 DUP5 ADD SWAP2 POP DUP3 DUP2 PUSH1 0x5 SHL DUP6 ADD ADD DUP4 DUP10 ADD PUSH1 0x0 JUMPDEST DUP4 DUP2 LT ISZERO PUSH2 0x1190 JUMPI PUSH1 0x1F NOT DUP8 DUP5 SUB ADD DUP6 MSTORE PUSH2 0x117E DUP4 DUP4 MLOAD PUSH2 0x1101 JUMP JUMPDEST SWAP5 DUP7 ADD SWAP5 SWAP3 POP SWAP1 DUP6 ADD SWAP1 PUSH1 0x1 ADD PUSH2 0x1162 JUMP JUMPDEST POP POP DUP1 SWAP6 POP POP POP POP POP POP DUP3 PUSH1 0x40 DUP4 ADD MSTORE SWAP5 SWAP4 POP POP POP POP JUMP INVALID LOG2 PUSH5 0x6970667358 0x22 SLT KECCAK256 0xE1 0xC3 0xAA 0xCC 0xE0 0x29 PUSH16 0x63A0612F3C0E76FA4B816FA0E6E56C5B LOG2 0xD2 PUSH26 0xD3C150BC240364736F6C63430008140033000000000000000000 "},"methodIdentifiers":{"BPS_DENOMINATOR()":"e1a45218","FEE_BPS()":"bf333f2c","feeRecipient()":"46904840","permit2()":"12261ee7","swap((address,address,uint256,uint256,uint24,uint256,uint8))":"c6283468","swapRouterV2()":"744fbc7a","swapRouterV3()":"b631e80b","swapWithPermit((address,address,uint256,uint256,uint24,uint256,uint8),bytes,bytes)":"e3cb791d","universalRouterV4()":"776ca801"}}}}}